{
  "contractName": "Voting",
  "abi": [
    {
      "constant": true,
      "inputs": [
        {
          "name": "",
          "type": "uint256"
        }
      ],
      "name": "candidates",
      "outputs": [
        {
          "name": "name",
          "type": "bytes32"
        },
        {
          "name": "party",
          "type": "bytes32"
        }
      ],
      "payable": false,
      "stateMutability": "view",
      "type": "function"
    },
    {
      "constant": true,
      "inputs": [],
      "name": "numCandidates",
      "outputs": [
        {
          "name": "",
          "type": "uint256"
        }
      ],
      "payable": false,
      "stateMutability": "view",
      "type": "function"
    },
    {
      "constant": true,
      "inputs": [
        {
          "name": "",
          "type": "uint256"
        }
      ],
      "name": "voteRecord",
      "outputs": [
        {
          "name": "",
          "type": "uint256"
        }
      ],
      "payable": false,
      "stateMutability": "view",
      "type": "function"
    },
    {
      "constant": true,
      "inputs": [
        {
          "name": "",
          "type": "address"
        }
      ],
      "name": "voted",
      "outputs": [
        {
          "name": "",
          "type": "bool"
        }
      ],
      "payable": false,
      "stateMutability": "view",
      "type": "function"
    },
    {
      "constant": true,
      "inputs": [],
      "name": "numVoted",
      "outputs": [
        {
          "name": "",
          "type": "uint256"
        }
      ],
      "payable": false,
      "stateMutability": "view",
      "type": "function"
    },
    {
      "inputs": [],
      "payable": false,
      "stateMutability": "nonpayable",
      "type": "constructor"
    },
    {
      "anonymous": false,
      "inputs": [
        {
          "indexed": false,
          "name": "cid",
          "type": "uint256"
        }
      ],
      "name": "Voted",
      "type": "event"
    },
    {
      "constant": false,
      "inputs": [
        {
          "name": "candidateID",
          "type": "uint256"
        },
        {
          "name": "voter",
          "type": "address"
        }
      ],
      "name": "vote",
      "outputs": [],
      "payable": false,
      "stateMutability": "nonpayable",
      "type": "function"
    }
  ],
  "bytecode": "0x608060405234801561001057600080fd5b506100617f43616e64696461746531000000000000000000000000000000000000000000007f506172747941000000000000000000000000000000000000000000000000000061015660201b60201c565b6100b17f43616e64696461746532000000000000000000000000000000000000000000007f506172747942000000000000000000000000000000000000000000000000000061015660201b60201c565b6101017f43616e64696461746533000000000000000000000000000000000000000000007f506172747943000000000000000000000000000000000000000000000000000061015660201b60201c565b6101517f43616e64696461746534000000000000000000000000000000000000000000007f506172747944000000000000000000000000000000000000000000000000000061015660201b60201c565b6101af565b600060016000815480929190600101919050559050604051806040016040528084815260200183815250600360008381526020019081526020016000206000820151816000015560208201518160010155905050505050565b6103f3806101be6000396000f3fe608060405234801561001057600080fd5b50600436106100625760003560e01c806302d947ef146100675780633477ee2e146100b55780635216509a146100fe5780637306a57a1461011c578063aec2ccae1461015e578063d55000ac146101ba575b600080fd5b6100b36004803603604081101561007d57600080fd5b8101908080359060200190929190803573ffffffffffffffffffffffffffffffffffffffff1690602001909291905050506101d8565b005b6100e1600480360360208110156100cb57600080fd5b810190808035906020019092919050505061035f565b604051808381526020018281526020019250505060405180910390f35b610106610383565b6040518082815260200191505060405180910390f35b6101486004803603602081101561013257600080fd5b8101908080359060200190929190505050610389565b6040518082815260200191505060405180910390f35b6101a06004803603602081101561017457600080fd5b81019080803573ffffffffffffffffffffffffffffffffffffffff1690602001909291905050506103a1565b604051808215151515815260200191505060405180910390f35b6101c26103c1565b6040518082815260200191505060405180910390f35b600260008273ffffffffffffffffffffffffffffffffffffffff1673ffffffffffffffffffffffffffffffffffffffff16815260200190815260200160002060009054906101000a900460ff1615610298576040517f08c379a00000000000000000000000000000000000000000000000000000000081526004018080602001828103825260188152602001807f596f75206861766520616c726561647920766f7465642121000000000000000081525060200191505060405180910390fd5b6001600260008373ffffffffffffffffffffffffffffffffffffffff1673ffffffffffffffffffffffffffffffffffffffff16815260200190815260200160002060006101000a81548160ff021916908315150217905550600080815480929190600101919050555060046000838152602001908152602001600020600081548092919060010191905055507f7f511e347bf51eed3be100b3194247d5207f05f3b33de7d31e3e8ee73199a049826040518082815260200191505060405180910390a15050565b60036020528060005260406000206000915090508060000154908060010154905082565b60015481565b60046020528060005260406000206000915090505481565b60026020528060005260406000206000915054906101000a900460ff1681565b6000548156fea165627a7a72305820f01e858ab4f5f8e450959687fbbc0ac81fbbc61ba07914ad7b87a89d07cdf3e70029",
  "source": "pragma solidity >=0.5.0 <0.7.0;\n\ncontract Voting{\n\t// address public voter;\n\tuint public numVoted;\n\tuint public numCandidates;\n\n\tstruct Candidate{\n\t\tbytes32 name;\n\t\tbytes32 party;\n\t}\n\n\tevent Voted(uint cid);\n\t\n\tmapping (address => bool) public voted;\n\tmapping (uint => Candidate) public candidates;\n\tmapping (uint => uint) public voteRecord;\n\n\tfunction addCandidate(bytes32 _name, bytes32 _party) private {\n\t\tuint candidateID = numCandidates++;\n\t\tcandidates[candidateID] = Candidate(_name, _party);\n\t\t\n\t}\n\t\n\tconstructor() public {\n\t\taddCandidate(\"Candidate1\", \"PartyA\");\n\t\taddCandidate(\"Candidate2\", \"PartyB\");\n\t\taddCandidate(\"Candidate3\", \"PartyC\");\n\t\taddCandidate(\"Candidate4\", \"PartyD\");\n\n\t}\n\n\tfunction vote(uint candidateID, address voter) public {\n\t\trequire(!voted[voter], \"You have already voted!!\");\n\t\t// require(candidates[candidateID],\"Candidate dosent existo\");\n\n\t\tvoted[voter] = true;\n\t\tnumVoted++;\n\t\tvoteRecord[candidateID]++;\n\t\temit Voted(candidateID);\n\t}\n\t\n\t// function setVoter(address _voter) public{\n\t// \tvoter = _voter;\n\t// }\n}\n",
  "sourcePath": "/Users/prash/Desktop/pj/eth/contracts/Voting.sol",
  "compiler": {
    "name": "solc",
    "version": "0.5.8+commit.23d335f2.Emscripten.clang"
  },
  "schemaVersion": "3.0.11",
  "updatedAt": "2019-06-21T07:56:44.603Z",
  "devdoc": {
    "methods": {}
  },
  "userdoc": {
    "methods": {}
  }
}